{
  "_format": "hh-sol-artifact-1",
  "contractName": "NFTMarketplace",
  "sourceName": "contracts/NFTMarket.sol",
  "abi": [
    {
      "inputs": [],
      "stateMutability": "nonpayable",
      "type": "constructor"
    },
    {
      "anonymous": false,
      "inputs": [
        {
          "indexed": true,
          "internalType": "address",
          "name": "owner",
          "type": "address"
        },
        {
          "indexed": true,
          "internalType": "address",
          "name": "approved",
          "type": "address"
        },
        {
          "indexed": true,
          "internalType": "uint256",
          "name": "tokenId",
          "type": "uint256"
        }
      ],
      "name": "Approval",
      "type": "event"
    },
    {
      "anonymous": false,
      "inputs": [
        {
          "indexed": true,
          "internalType": "address",
          "name": "owner",
          "type": "address"
        },
        {
          "indexed": true,
          "internalType": "address",
          "name": "operator",
          "type": "address"
        },
        {
          "indexed": false,
          "internalType": "bool",
          "name": "approved",
          "type": "bool"
        }
      ],
      "name": "ApprovalForAll",
      "type": "event"
    },
    {
      "anonymous": false,
      "inputs": [
        {
          "indexed": false,
          "internalType": "uint256",
          "name": "_fromTokenId",
          "type": "uint256"
        },
        {
          "indexed": false,
          "internalType": "uint256",
          "name": "_toTokenId",
          "type": "uint256"
        }
      ],
      "name": "BatchMetadataUpdate",
      "type": "event"
    },
    {
      "anonymous": false,
      "inputs": [
        {
          "indexed": true,
          "internalType": "uint256",
          "name": "tokenId",
          "type": "uint256"
        },
        {
          "indexed": false,
          "internalType": "address",
          "name": "seller",
          "type": "address"
        },
        {
          "indexed": false,
          "internalType": "address",
          "name": "owner",
          "type": "address"
        },
        {
          "indexed": false,
          "internalType": "uint256",
          "name": "price",
          "type": "uint256"
        },
        {
          "indexed": false,
          "internalType": "bool",
          "name": "sold",
          "type": "bool"
        }
      ],
      "name": "MarketItemCreated",
      "type": "event"
    },
    {
      "anonymous": false,
      "inputs": [
        {
          "indexed": false,
          "internalType": "uint256",
          "name": "_tokenId",
          "type": "uint256"
        }
      ],
      "name": "MetadataUpdate",
      "type": "event"
    },
    {
      "anonymous": false,
      "inputs": [
        {
          "indexed": true,
          "internalType": "address",
          "name": "from",
          "type": "address"
        },
        {
          "indexed": true,
          "internalType": "address",
          "name": "to",
          "type": "address"
        },
        {
          "indexed": true,
          "internalType": "uint256",
          "name": "tokenId",
          "type": "uint256"
        }
      ],
      "name": "Transfer",
      "type": "event"
    },
    {
      "inputs": [
        {
          "internalType": "address",
          "name": "to",
          "type": "address"
        },
        {
          "internalType": "uint256",
          "name": "tokenId",
          "type": "uint256"
        }
      ],
      "name": "approve",
      "outputs": [],
      "stateMutability": "nonpayable",
      "type": "function"
    },
    {
      "inputs": [
        {
          "internalType": "address",
          "name": "owner",
          "type": "address"
        }
      ],
      "name": "balanceOf",
      "outputs": [
        {
          "internalType": "uint256",
          "name": "",
          "type": "uint256"
        }
      ],
      "stateMutability": "view",
      "type": "function"
    },
    {
      "inputs": [
        {
          "internalType": "uint256",
          "name": "tokenId",
          "type": "uint256"
        }
      ],
      "name": "cancelItemListing",
      "outputs": [],
      "stateMutability": "nonpayable",
      "type": "function"
    },
    {
      "inputs": [
        {
          "internalType": "uint256",
          "name": "tokenId",
          "type": "uint256"
        }
      ],
      "name": "createMarketSale",
      "outputs": [],
      "stateMutability": "payable",
      "type": "function"
    },
    {
      "inputs": [
        {
          "internalType": "string",
          "name": "tokenURI",
          "type": "string"
        },
        {
          "internalType": "uint256",
          "name": "price",
          "type": "uint256"
        }
      ],
      "name": "createToken",
      "outputs": [
        {
          "internalType": "uint256",
          "name": "",
          "type": "uint256"
        }
      ],
      "stateMutability": "payable",
      "type": "function"
    },
    {
      "inputs": [],
      "name": "fetchItemsListed",
      "outputs": [
        {
          "components": [
            {
              "internalType": "uint256",
              "name": "tokenId",
              "type": "uint256"
            },
            {
              "internalType": "address payable",
              "name": "seller",
              "type": "address"
            },
            {
              "internalType": "address payable",
              "name": "owner",
              "type": "address"
            },
            {
              "internalType": "uint256",
              "name": "price",
              "type": "uint256"
            },
            {
              "internalType": "bool",
              "name": "sold",
              "type": "bool"
            }
          ],
          "internalType": "struct NFTMarketplace.MarketItem[]",
          "name": "",
          "type": "tuple[]"
        }
      ],
      "stateMutability": "view",
      "type": "function"
    },
    {
      "inputs": [],
      "name": "fetchMarketItems",
      "outputs": [
        {
          "components": [
            {
              "internalType": "uint256",
              "name": "tokenId",
              "type": "uint256"
            },
            {
              "internalType": "address payable",
              "name": "seller",
              "type": "address"
            },
            {
              "internalType": "address payable",
              "name": "owner",
              "type": "address"
            },
            {
              "internalType": "uint256",
              "name": "price",
              "type": "uint256"
            },
            {
              "internalType": "bool",
              "name": "sold",
              "type": "bool"
            }
          ],
          "internalType": "struct NFTMarketplace.MarketItem[]",
          "name": "",
          "type": "tuple[]"
        }
      ],
      "stateMutability": "view",
      "type": "function"
    },
    {
      "inputs": [],
      "name": "fetchMyNFTs",
      "outputs": [
        {
          "components": [
            {
              "internalType": "uint256",
              "name": "tokenId",
              "type": "uint256"
            },
            {
              "internalType": "address payable",
              "name": "seller",
              "type": "address"
            },
            {
              "internalType": "address payable",
              "name": "owner",
              "type": "address"
            },
            {
              "internalType": "uint256",
              "name": "price",
              "type": "uint256"
            },
            {
              "internalType": "bool",
              "name": "sold",
              "type": "bool"
            }
          ],
          "internalType": "struct NFTMarketplace.MarketItem[]",
          "name": "",
          "type": "tuple[]"
        }
      ],
      "stateMutability": "view",
      "type": "function"
    },
    {
      "inputs": [
        {
          "internalType": "uint256",
          "name": "tokenId",
          "type": "uint256"
        }
      ],
      "name": "getApproved",
      "outputs": [
        {
          "internalType": "address",
          "name": "",
          "type": "address"
        }
      ],
      "stateMutability": "view",
      "type": "function"
    },
    {
      "inputs": [],
      "name": "getListingPrice",
      "outputs": [
        {
          "internalType": "uint256",
          "name": "",
          "type": "uint256"
        }
      ],
      "stateMutability": "view",
      "type": "function"
    },
    {
      "inputs": [
        {
          "internalType": "address",
          "name": "owner",
          "type": "address"
        },
        {
          "internalType": "address",
          "name": "operator",
          "type": "address"
        }
      ],
      "name": "isApprovedForAll",
      "outputs": [
        {
          "internalType": "bool",
          "name": "",
          "type": "bool"
        }
      ],
      "stateMutability": "view",
      "type": "function"
    },
    {
      "inputs": [],
      "name": "name",
      "outputs": [
        {
          "internalType": "string",
          "name": "",
          "type": "string"
        }
      ],
      "stateMutability": "view",
      "type": "function"
    },
    {
      "inputs": [
        {
          "internalType": "uint256",
          "name": "tokenId",
          "type": "uint256"
        }
      ],
      "name": "ownerOf",
      "outputs": [
        {
          "internalType": "address",
          "name": "",
          "type": "address"
        }
      ],
      "stateMutability": "view",
      "type": "function"
    },
    {
      "inputs": [
        {
          "internalType": "uint256",
          "name": "tokenId",
          "type": "uint256"
        },
        {
          "internalType": "uint256",
          "name": "price",
          "type": "uint256"
        }
      ],
      "name": "resellToken",
      "outputs": [],
      "stateMutability": "payable",
      "type": "function"
    },
    {
      "inputs": [
        {
          "internalType": "address",
          "name": "from",
          "type": "address"
        },
        {
          "internalType": "address",
          "name": "to",
          "type": "address"
        },
        {
          "internalType": "uint256",
          "name": "tokenId",
          "type": "uint256"
        }
      ],
      "name": "safeTransferFrom",
      "outputs": [],
      "stateMutability": "nonpayable",
      "type": "function"
    },
    {
      "inputs": [
        {
          "internalType": "address",
          "name": "from",
          "type": "address"
        },
        {
          "internalType": "address",
          "name": "to",
          "type": "address"
        },
        {
          "internalType": "uint256",
          "name": "tokenId",
          "type": "uint256"
        },
        {
          "internalType": "bytes",
          "name": "data",
          "type": "bytes"
        }
      ],
      "name": "safeTransferFrom",
      "outputs": [],
      "stateMutability": "nonpayable",
      "type": "function"
    },
    {
      "inputs": [
        {
          "internalType": "address",
          "name": "operator",
          "type": "address"
        },
        {
          "internalType": "bool",
          "name": "approved",
          "type": "bool"
        }
      ],
      "name": "setApprovalForAll",
      "outputs": [],
      "stateMutability": "nonpayable",
      "type": "function"
    },
    {
      "inputs": [
        {
          "internalType": "bytes4",
          "name": "interfaceId",
          "type": "bytes4"
        }
      ],
      "name": "supportsInterface",
      "outputs": [
        {
          "internalType": "bool",
          "name": "",
          "type": "bool"
        }
      ],
      "stateMutability": "view",
      "type": "function"
    },
    {
      "inputs": [],
      "name": "symbol",
      "outputs": [
        {
          "internalType": "string",
          "name": "",
          "type": "string"
        }
      ],
      "stateMutability": "view",
      "type": "function"
    },
    {
      "inputs": [
        {
          "internalType": "uint256",
          "name": "tokenId",
          "type": "uint256"
        }
      ],
      "name": "tokenURI",
      "outputs": [
        {
          "internalType": "string",
          "name": "",
          "type": "string"
        }
      ],
      "stateMutability": "view",
      "type": "function"
    },
    {
      "inputs": [
        {
          "internalType": "address",
          "name": "from",
          "type": "address"
        },
        {
          "internalType": "address",
          "name": "to",
          "type": "address"
        },
        {
          "internalType": "uint256",
          "name": "tokenId",
          "type": "uint256"
        }
      ],
      "name": "transferFrom",
      "outputs": [],
      "stateMutability": "nonpayable",
      "type": "function"
    },
    {
      "inputs": [
        {
          "internalType": "uint256",
          "name": "_listingPrice",
          "type": "uint256"
        }
      ],
      "name": "updateListingPrice",
      "outputs": [],
      "stateMutability": "payable",
      "type": "function"
    }
  ],
  "bytecode": "0x608060405266038d7ea4c680006009553480156200001c57600080fd5b506040518060400160405280601081526020017f4d657461766572736520546f6b656e73000000000000000000000000000000008152506040518060400160405280600481526020017f4d455441000000000000000000000000000000000000000000000000000000008152508160009080519060200190620000a192919062000104565b508060019080519060200190620000ba92919062000104565b50505033600a60006101000a81548173ffffffffffffffffffffffffffffffffffffffff021916908373ffffffffffffffffffffffffffffffffffffffff16021790555062000219565b8280546200011290620001e3565b90600052602060002090601f01602090048101928262000136576000855562000182565b82601f106200015157805160ff191683800117855562000182565b8280016001018555821562000182579182015b828111156200018157825182559160200191906001019062000164565b5b50905062000191919062000195565b5090565b5b80821115620001b057600081600090555060010162000196565b5090565b7f4e487b7100000000000000000000000000000000000000000000000000000000600052602260045260246000fd5b60006002820490506001821680620001fc57607f821691505b60208210811415620002135762000212620001b4565b5b50919050565b61451380620002296000396000f3fe6080604052600436106101355760003560e01c80636352211e116100ab578063ae677aa31161006f578063ae677aa31461042d578063b88d4fde14610449578063be9af53614610472578063c87b56dd1461048e578063e219fc75146104cb578063e985e9c5146104e757610135565b80636352211e1461032f57806370a082311461036c57806372b3b620146103a957806395d89b41146103d9578063a22cb4651461040457610135565b806312e85585116100fd57806312e8558514610233578063202e37401461025e57806323b872dd14610289578063260070d8146102b257806342842e0e146102db57806345f8fa801461030457610135565b806301ffc9a71461013a57806306fdde0314610177578063081812fc146101a2578063095ea7b3146101df5780630f08efe014610208575b600080fd5b34801561014657600080fd5b50610161600480360381019061015c9190612f04565b610524565b60405161016e9190612f4c565b60405180910390f35b34801561018357600080fd5b5061018c610585565b6040516101999190613000565b60405180910390f35b3480156101ae57600080fd5b506101c960048036038101906101c49190613058565b610617565b6040516101d691906130c6565b60405180910390f35b3480156101eb57600080fd5b506102066004803603810190610201919061310d565b61065d565b005b34801561021457600080fd5b5061021d610775565b60405161022a91906132a3565b60405180910390f35b34801561023f57600080fd5b506102486109de565b60405161025591906132d4565b60405180910390f35b34801561026a57600080fd5b506102736109e8565b60405161028091906132a3565b60405180910390f35b34801561029557600080fd5b506102b060048036038101906102ab91906132ef565b610cd6565b005b3480156102be57600080fd5b506102d960048036038101906102d49190613058565b610d36565b005b3480156102e757600080fd5b5061030260048036038101906102fd91906132ef565b610fa1565b005b34801561031057600080fd5b50610319610fc1565b60405161032691906132a3565b60405180910390f35b34801561033b57600080fd5b5061035660048036038101906103519190613058565b6112af565b60405161036391906130c6565b60405180910390f35b34801561037857600080fd5b50610393600480360381019061038e9190613342565b611336565b6040516103a091906132d4565b60405180910390f35b6103c360048036038101906103be91906134a4565b6113ee565b6040516103d091906132d4565b60405180910390f35b3480156103e557600080fd5b506103ee611430565b6040516103fb9190613000565b60405180910390f35b34801561041057600080fd5b5061042b6004803603810190610426919061352c565b6114c2565b005b61044760048036038101906104429190613058565b6114d8565b005b34801561045557600080fd5b50610470600480360381019061046b919061360d565b611572565b005b61048c60048036038101906104879190613058565b6115d4565b005b34801561049a57600080fd5b506104b560048036038101906104b09190613058565b611812565b6040516104c29190613000565b60405180910390f35b6104e560048036038101906104e09190613690565b611925565b005b3480156104f357600080fd5b5061050e600480360381019061050991906136d0565b611b1a565b60405161051b9190612f4c565b60405180910390f35b6000634906490660e01b7bffffffffffffffffffffffffffffffffffffffffffffffffffffffff1916827bffffffffffffffffffffffffffffffffffffffffffffffffffffffff1916148061057e575061057d82611bae565b5b9050919050565b6060600080546105949061373f565b80601f01602080910402602001604051908101604052809291908181526020018280546105c09061373f565b801561060d5780601f106105e25761010080835404028352916020019161060d565b820191906000526020600020905b8154815290600101906020018083116105f057829003601f168201915b5050505050905090565b600061062282611c90565b6004600083815260200190815260200160002060009054906101000a900473ffffffffffffffffffffffffffffffffffffffff169050919050565b6000610668826112af565b90508073ffffffffffffffffffffffffffffffffffffffff168373ffffffffffffffffffffffffffffffffffffffff1614156106d9576040517f08c379a00000000000000000000000000000000000000000000000000000000081526004016106d0906137e3565b60405180910390fd5b8073ffffffffffffffffffffffffffffffffffffffff166106f8611cdb565b73ffffffffffffffffffffffffffffffffffffffff161480610727575061072681610721611cdb565b611b1a565b5b610766576040517f08c379a000000000000000000000000000000000000000000000000000000000815260040161075d90613875565b60405180910390fd5b6107708383611ce3565b505050565b606060006107836007611d9c565b905060006107916008611d9c565b61079b6007611d9c565b6107a591906138c4565b90506000808267ffffffffffffffff8111156107c4576107c3613379565b5b6040519080825280602002602001820160405280156107fd57816020015b6107ea612d98565b8152602001906001900390816107e25790505b50905060005b848110156109d3573073ffffffffffffffffffffffffffffffffffffffff16600b600060018461083391906138f8565b815260200190815260200160002060020160009054906101000a900473ffffffffffffffffffffffffffffffffffffffff1673ffffffffffffffffffffffffffffffffffffffff1614156109c057600060018261089091906138f8565b90506000600b60008381526020019081526020016000209050806040518060a0016040529081600082015481526020016001820160009054906101000a900473ffffffffffffffffffffffffffffffffffffffff1673ffffffffffffffffffffffffffffffffffffffff1673ffffffffffffffffffffffffffffffffffffffff1681526020016002820160009054906101000a900473ffffffffffffffffffffffffffffffffffffffff1673ffffffffffffffffffffffffffffffffffffffff1673ffffffffffffffffffffffffffffffffffffffff168152602001600382015481526020016004820160009054906101000a900460ff1615151515815250508486815181106109a3576109a261394e565b5b60200260200101819052506001856109bb91906138f8565b945050505b80806109cb9061397d565b915050610803565b508094505050505090565b6000600954905090565b606060006109f66007611d9c565b905060008060005b83811015610a9f573373ffffffffffffffffffffffffffffffffffffffff16600b6000600184610a2e91906138f8565b815260200190815260200160002060020160009054906101000a900473ffffffffffffffffffffffffffffffffffffffff1673ffffffffffffffffffffffffffffffffffffffff161415610a8c57600183610a8991906138f8565b92505b8080610a979061397d565b9150506109fe565b5060008267ffffffffffffffff811115610abc57610abb613379565b5b604051908082528060200260200182016040528015610af557816020015b610ae2612d98565b815260200190600190039081610ada5790505b50905060005b84811015610ccb573373ffffffffffffffffffffffffffffffffffffffff16600b6000600184610b2b91906138f8565b815260200190815260200160002060020160009054906101000a900473ffffffffffffffffffffffffffffffffffffffff1673ffffffffffffffffffffffffffffffffffffffff161415610cb8576000600182610b8891906138f8565b90506000600b60008381526020019081526020016000209050806040518060a0016040529081600082015481526020016001820160009054906101000a900473ffffffffffffffffffffffffffffffffffffffff1673ffffffffffffffffffffffffffffffffffffffff1673ffffffffffffffffffffffffffffffffffffffff1681526020016002820160009054906101000a900473ffffffffffffffffffffffffffffffffffffffff1673ffffffffffffffffffffffffffffffffffffffff1673ffffffffffffffffffffffffffffffffffffffff168152602001600382015481526020016004820160009054906101000a900460ff161515151581525050848681518110610c9b57610c9a61394e565b5b6020026020010181905250600185610cb391906138f8565b945050505b8080610cc39061397d565b915050610afb565b508094505050505090565b610ce7610ce1611cdb565b82611daa565b610d26576040517f08c379a0000000000000000000000000000000000000000000000000000000008152600401610d1d90613a38565b60405180910390fd5b610d31838383611e3f565b505050565b3373ffffffffffffffffffffffffffffffffffffffff16600b600083815260200190815260200160002060010160009054906101000a900473ffffffffffffffffffffffffffffffffffffffff1673ffffffffffffffffffffffffffffffffffffffff1614610dda576040517f08c379a0000000000000000000000000000000000000000000000000000000008152600401610dd190613aca565b60405180910390fd5b60001515600b600083815260200190815260200160002060040160009054906101000a900460ff16151514610e44576040517f08c379a0000000000000000000000000000000000000000000000000000000008152600401610e3b90613b5c565b60405180910390fd5b33600b600083815260200190815260200160002060020160006101000a81548173ffffffffffffffffffffffffffffffffffffffff021916908373ffffffffffffffffffffffffffffffffffffffff1602179055506000600b600083815260200190815260200160002060010160006101000a81548173ffffffffffffffffffffffffffffffffffffffff021916908373ffffffffffffffffffffffffffffffffffffffff1602179055506001600b600083815260200190815260200160002060040160006101000a81548160ff021916908315150217905550610f286008612139565b600a60009054906101000a900473ffffffffffffffffffffffffffffffffffffffff1673ffffffffffffffffffffffffffffffffffffffff166108fc6009549081150290604051600060405180830381858888f19350505050158015610f92573d6000803e3d6000fd5b50610f9e303383611e3f565b50565b610fbc83838360405180602001604052806000815250611572565b505050565b60606000610fcf6007611d9c565b905060008060005b83811015611078573373ffffffffffffffffffffffffffffffffffffffff16600b600060018461100791906138f8565b815260200190815260200160002060010160009054906101000a900473ffffffffffffffffffffffffffffffffffffffff1673ffffffffffffffffffffffffffffffffffffffff1614156110655760018361106291906138f8565b92505b80806110709061397d565b915050610fd7565b5060008267ffffffffffffffff81111561109557611094613379565b5b6040519080825280602002602001820160405280156110ce57816020015b6110bb612d98565b8152602001906001900390816110b35790505b50905060005b848110156112a4573373ffffffffffffffffffffffffffffffffffffffff16600b600060018461110491906138f8565b815260200190815260200160002060010160009054906101000a900473ffffffffffffffffffffffffffffffffffffffff1673ffffffffffffffffffffffffffffffffffffffff16141561129157600060018261116191906138f8565b90506000600b60008381526020019081526020016000209050806040518060a0016040529081600082015481526020016001820160009054906101000a900473ffffffffffffffffffffffffffffffffffffffff1673ffffffffffffffffffffffffffffffffffffffff1673ffffffffffffffffffffffffffffffffffffffff1681526020016002820160009054906101000a900473ffffffffffffffffffffffffffffffffffffffff1673ffffffffffffffffffffffffffffffffffffffff1673ffffffffffffffffffffffffffffffffffffffff168152602001600382015481526020016004820160009054906101000a900460ff1615151515815250508486815181106112745761127361394e565b5b602002602001018190525060018561128c91906138f8565b945050505b808061129c9061397d565b9150506110d4565b508094505050505090565b6000806112bb8361214f565b9050600073ffffffffffffffffffffffffffffffffffffffff168173ffffffffffffffffffffffffffffffffffffffff16141561132d576040517f08c379a000000000000000000000000000000000000000000000000000000000815260040161132490613bc8565b60405180910390fd5b80915050919050565b60008073ffffffffffffffffffffffffffffffffffffffff168273ffffffffffffffffffffffffffffffffffffffff1614156113a7576040517f08c379a000000000000000000000000000000000000000000000000000000000815260040161139e90613c5a565b60405180910390fd5b600360008373ffffffffffffffffffffffffffffffffffffffff1673ffffffffffffffffffffffffffffffffffffffff168152602001908152602001600020549050919050565b60006113fa6007612139565b60006114066007611d9c565b9050611412338261218c565b61141c81856123aa565b6114268184612455565b8091505092915050565b60606001805461143f9061373f565b80601f016020809104026020016040519081016040528092919081815260200182805461146b9061373f565b80156114b85780601f1061148d576101008083540402835291602001916114b8565b820191906000526020600020905b81548152906001019060200180831161149b57829003601f168201915b5050505050905090565b6114d46114cd611cdb565b8383612658565b5050565b3373ffffffffffffffffffffffffffffffffffffffff16600a60009054906101000a900473ffffffffffffffffffffffffffffffffffffffff1673ffffffffffffffffffffffffffffffffffffffff1614611568576040517f08c379a000000000000000000000000000000000000000000000000000000000815260040161155f90613cec565b60405180910390fd5b8060098190555050565b61158361157d611cdb565b83611daa565b6115c2576040517f08c379a00000000000000000000000000000000000000000000000000000000081526004016115b990613a38565b60405180910390fd5b6115ce848484846127c5565b50505050565b6000600b60008381526020019081526020016000206003015490506000600b600084815260200190815260200160002060010160009054906101000a900473ffffffffffffffffffffffffffffffffffffffff16905081341461166c576040517f08c379a000000000000000000000000000000000000000000000000000000000815260040161166390613d7e565b60405180910390fd5b33600b600085815260200190815260200160002060020160006101000a81548173ffffffffffffffffffffffffffffffffffffffff021916908373ffffffffffffffffffffffffffffffffffffffff1602179055506001600b600085815260200190815260200160002060040160006101000a81548160ff0219169083151502179055506000600b600085815260200190815260200160002060010160006101000a81548173ffffffffffffffffffffffffffffffffffffffff021916908373ffffffffffffffffffffffffffffffffffffffff1602179055506117506008612139565b61175b303385611e3f565b600a60009054906101000a900473ffffffffffffffffffffffffffffffffffffffff1673ffffffffffffffffffffffffffffffffffffffff166108fc6009549081150290604051600060405180830381858888f193505050501580156117c5573d6000803e3d6000fd5b508073ffffffffffffffffffffffffffffffffffffffff166108fc349081150290604051600060405180830381858888f1935050505015801561180c573d6000803e3d6000fd5b50505050565b606061181d82611c90565b600060066000848152602001908152602001600020805461183d9061373f565b80601f01602080910402602001604051908101604052809291908181526020018280546118699061373f565b80156118b65780601f1061188b576101008083540402835291602001916118b6565b820191906000526020600020905b81548152906001019060200180831161189957829003601f168201915b5050505050905060006118c7612821565b90506000815114156118dd578192505050611920565b6000825111156119125780826040516020016118fa929190613dda565b60405160208183030381529060405292505050611920565b61191b84612838565b925050505b919050565b3373ffffffffffffffffffffffffffffffffffffffff16600b600084815260200190815260200160002060020160009054906101000a900473ffffffffffffffffffffffffffffffffffffffff1673ffffffffffffffffffffffffffffffffffffffff16146119c9576040517f08c379a00000000000000000000000000000000000000000000000000000000081526004016119c090613e70565b60405180910390fd5b6009543414611a0d576040517f08c379a0000000000000000000000000000000000000000000000000000000008152600401611a0490613f02565b60405180910390fd5b6000600b600084815260200190815260200160002060040160006101000a81548160ff02191690831515021790555080600b60008481526020019081526020016000206003018190555033600b600084815260200190815260200160002060010160006101000a81548173ffffffffffffffffffffffffffffffffffffffff021916908373ffffffffffffffffffffffffffffffffffffffff16021790555030600b600084815260200190815260200160002060020160006101000a81548173ffffffffffffffffffffffffffffffffffffffff021916908373ffffffffffffffffffffffffffffffffffffffff160217905550611b0b60086128a0565b611b16333084611e3f565b5050565b6000600560008473ffffffffffffffffffffffffffffffffffffffff1673ffffffffffffffffffffffffffffffffffffffff16815260200190815260200160002060008373ffffffffffffffffffffffffffffffffffffffff1673ffffffffffffffffffffffffffffffffffffffff16815260200190815260200160002060009054906101000a900460ff16905092915050565b60007f80ac58cd000000000000000000000000000000000000000000000000000000007bffffffffffffffffffffffffffffffffffffffffffffffffffffffff1916827bffffffffffffffffffffffffffffffffffffffffffffffffffffffff19161480611c7957507f5b5e139f000000000000000000000000000000000000000000000000000000007bffffffffffffffffffffffffffffffffffffffffffffffffffffffff1916827bffffffffffffffffffffffffffffffffffffffffffffffffffffffff1916145b80611c895750611c88826128fc565b5b9050919050565b611c9981612966565b611cd8576040517f08c379a0000000000000000000000000000000000000000000000000000000008152600401611ccf90613bc8565b60405180910390fd5b50565b600033905090565b816004600083815260200190815260200160002060006101000a81548173ffffffffffffffffffffffffffffffffffffffff021916908373ffffffffffffffffffffffffffffffffffffffff160217905550808273ffffffffffffffffffffffffffffffffffffffff16611d56836112af565b73ffffffffffffffffffffffffffffffffffffffff167f8c5be1e5ebec7d5bd14f71427d1e84f3dd0314c0f7b2291e5b200ac8c7c3b92560405160405180910390a45050565b600081600001549050919050565b600080611db6836112af565b90508073ffffffffffffffffffffffffffffffffffffffff168473ffffffffffffffffffffffffffffffffffffffff161480611df85750611df78185611b1a565b5b80611e3657508373ffffffffffffffffffffffffffffffffffffffff16611e1e84610617565b73ffffffffffffffffffffffffffffffffffffffff16145b91505092915050565b8273ffffffffffffffffffffffffffffffffffffffff16611e5f826112af565b73ffffffffffffffffffffffffffffffffffffffff1614611eb5576040517f08c379a0000000000000000000000000000000000000000000000000000000008152600401611eac90613f94565b60405180910390fd5b600073ffffffffffffffffffffffffffffffffffffffff168273ffffffffffffffffffffffffffffffffffffffff161415611f25576040517f08c379a0000000000000000000000000000000000000000000000000000000008152600401611f1c90614026565b60405180910390fd5b611f3283838360016129a7565b8273ffffffffffffffffffffffffffffffffffffffff16611f52826112af565b73ffffffffffffffffffffffffffffffffffffffff1614611fa8576040517f08c379a0000000000000000000000000000000000000000000000000000000008152600401611f9f90613f94565b60405180910390fd5b6004600082815260200190815260200160002060006101000a81549073ffffffffffffffffffffffffffffffffffffffff02191690556001600360008573ffffffffffffffffffffffffffffffffffffffff1673ffffffffffffffffffffffffffffffffffffffff168152602001908152602001600020600082825403925050819055506001600360008473ffffffffffffffffffffffffffffffffffffffff1673ffffffffffffffffffffffffffffffffffffffff16815260200190815260200160002060008282540192505081905550816002600083815260200190815260200160002060006101000a81548173ffffffffffffffffffffffffffffffffffffffff021916908373ffffffffffffffffffffffffffffffffffffffff160217905550808273ffffffffffffffffffffffffffffffffffffffff168473ffffffffffffffffffffffffffffffffffffffff167fddf252ad1be2c89b69c2b068fc378daa952ba7f163c4a11628f55a4df523b3ef60405160405180910390a461213483838360016129ad565b505050565b6001816000016000828254019250508190555050565b60006002600083815260200190815260200160002060009054906101000a900473ffffffffffffffffffffffffffffffffffffffff169050919050565b600073ffffffffffffffffffffffffffffffffffffffff168273ffffffffffffffffffffffffffffffffffffffff1614156121fc576040517f08c379a00000000000000000000000000000000000000000000000000000000081526004016121f390614092565b60405180910390fd5b61220581612966565b15612245576040517f08c379a000000000000000000000000000000000000000000000000000000000815260040161223c906140fe565b60405180910390fd5b6122536000838360016129a7565b61225c81612966565b1561229c576040517f08c379a0000000000000000000000000000000000000000000000000000000008152600401612293906140fe565b60405180910390fd5b6001600360008473ffffffffffffffffffffffffffffffffffffffff1673ffffffffffffffffffffffffffffffffffffffff16815260200190815260200160002060008282540192505081905550816002600083815260200190815260200160002060006101000a81548173ffffffffffffffffffffffffffffffffffffffff021916908373ffffffffffffffffffffffffffffffffffffffff160217905550808273ffffffffffffffffffffffffffffffffffffffff16600073ffffffffffffffffffffffffffffffffffffffff167fddf252ad1be2c89b69c2b068fc378daa952ba7f163c4a11628f55a4df523b3ef60405160405180910390a46123a66000838360016129ad565b5050565b6123b382612966565b6123f2576040517f08c379a00000000000000000000000000000000000000000000000000000000081526004016123e990614190565b60405180910390fd5b80600660008481526020019081526020016000209080519060200190612419929190612df5565b507ff8e1a15aba9398e019f0b49df1a4fde98ee17ae345cb5f6b5e2c27f5033e8ce78260405161244991906132d4565b60405180910390a15050565b60008111612498576040517f08c379a000000000000000000000000000000000000000000000000000000000815260040161248f906141fc565b60405180910390fd5b60095434146124dc576040517f08c379a00000000000000000000000000000000000000000000000000000000081526004016124d390613f02565b60405180910390fd5b6040518060a001604052808381526020013373ffffffffffffffffffffffffffffffffffffffff1681526020013073ffffffffffffffffffffffffffffffffffffffff16815260200182815260200160001515815250600b60008481526020019081526020016000206000820151816000015560208201518160010160006101000a81548173ffffffffffffffffffffffffffffffffffffffff021916908373ffffffffffffffffffffffffffffffffffffffff16021790555060408201518160020160006101000a81548173ffffffffffffffffffffffffffffffffffffffff021916908373ffffffffffffffffffffffffffffffffffffffff1602179055506060820151816003015560808201518160040160006101000a81548160ff021916908315150217905550905050612615333084611e3f565b817fb640004f1d14576d0c209e240cad0410e0d8c0c33a09375861fbadae2588a98d333084600060405161264c949392919061421c565b60405180910390a25050565b8173ffffffffffffffffffffffffffffffffffffffff168373ffffffffffffffffffffffffffffffffffffffff1614156126c7576040517f08c379a00000000000000000000000000000000000000000000000000000000081526004016126be906142ad565b60405180910390fd5b80600560008573ffffffffffffffffffffffffffffffffffffffff1673ffffffffffffffffffffffffffffffffffffffff16815260200190815260200160002060008473ffffffffffffffffffffffffffffffffffffffff1673ffffffffffffffffffffffffffffffffffffffff16815260200190815260200160002060006101000a81548160ff0219169083151502179055508173ffffffffffffffffffffffffffffffffffffffff168373ffffffffffffffffffffffffffffffffffffffff167f17307eab39ab6107e8899845ad3d59bd9653f200f220920489ca2b5937696c31836040516127b89190612f4c565b60405180910390a3505050565b6127d0848484611e3f565b6127dc848484846129b3565b61281b576040517f08c379a00000000000000000000000000000000000000000000000000000000081526004016128129061433f565b60405180910390fd5b50505050565b606060405180602001604052806000815250905090565b606061284382611c90565b600061284d612821565b9050600081511161286d5760405180602001604052806000815250612898565b8061287784612b4a565b604051602001612888929190613dda565b6040516020818303038152906040525b915050919050565b600081600001549050600081116128ec576040517f08c379a00000000000000000000000000000000000000000000000000000000081526004016128e3906143ab565b60405180910390fd5b6001810382600001819055505050565b60007f01ffc9a7000000000000000000000000000000000000000000000000000000007bffffffffffffffffffffffffffffffffffffffffffffffffffffffff1916827bffffffffffffffffffffffffffffffffffffffffffffffffffffffff1916149050919050565b60008073ffffffffffffffffffffffffffffffffffffffff166129888361214f565b73ffffffffffffffffffffffffffffffffffffffff1614159050919050565b50505050565b50505050565b60006129d48473ffffffffffffffffffffffffffffffffffffffff16612c22565b15612b3d578373ffffffffffffffffffffffffffffffffffffffff1663150b7a026129fd611cdb565b8786866040518563ffffffff1660e01b8152600401612a1f9493929190614420565b602060405180830381600087803b158015612a3957600080fd5b505af1925050508015612a6a57506040513d601f19601f82011682018060405250810190612a679190614481565b60015b612aed573d8060008114612a9a576040519150601f19603f3d011682016040523d82523d6000602084013e612a9f565b606091505b50600081511415612ae5576040517f08c379a0000000000000000000000000000000000000000000000000000000008152600401612adc9061433f565b60405180910390fd5b805181602001fd5b63150b7a0260e01b7bffffffffffffffffffffffffffffffffffffffffffffffffffffffff1916817bffffffffffffffffffffffffffffffffffffffffffffffffffffffff191614915050612b42565b600190505b949350505050565b606060006001612b5984612c45565b01905060008167ffffffffffffffff811115612b7857612b77613379565b5b6040519080825280601f01601f191660200182016040528015612baa5781602001600182028036833780820191505090505b509050600082602001820190505b600115612c17578080600190039150507f3031323334353637383961626364656600000000000000000000000000000000600a86061a8153600a8581612c0157612c006144ae565b5b0494506000851415612c1257612c17565b612bb8565b819350505050919050565b6000808273ffffffffffffffffffffffffffffffffffffffff163b119050919050565b600080600090507a184f03e93ff9f4daa797ed6e38ed64bf6a1f0100000000000000008310612ca3577a184f03e93ff9f4daa797ed6e38ed64bf6a1f0100000000000000008381612c9957612c986144ae565b5b0492506040810190505b6d04ee2d6d415b85acef81000000008310612ce0576d04ee2d6d415b85acef81000000008381612cd657612cd56144ae565b5b0492506020810190505b662386f26fc100008310612d0f57662386f26fc100008381612d0557612d046144ae565b5b0492506010810190505b6305f5e1008310612d38576305f5e1008381612d2e57612d2d6144ae565b5b0492506008810190505b6127108310612d5d576127108381612d5357612d526144ae565b5b0492506004810190505b60648310612d805760648381612d7657612d756144ae565b5b0492506002810190505b600a8310612d8f576001810190505b80915050919050565b6040518060a0016040528060008152602001600073ffffffffffffffffffffffffffffffffffffffff168152602001600073ffffffffffffffffffffffffffffffffffffffff168152602001600081526020016000151581525090565b828054612e019061373f565b90600052602060002090601f016020900481019282612e235760008555612e6a565b82601f10612e3c57805160ff1916838001178555612e6a565b82800160010185558215612e6a579182015b82811115612e69578251825591602001919060010190612e4e565b5b509050612e779190612e7b565b5090565b5b80821115612e94576000816000905550600101612e7c565b5090565b6000604051905090565b600080fd5b600080fd5b60007fffffffff0000000000000000000000000000000000000000000000000000000082169050919050565b612ee181612eac565b8114612eec57600080fd5b50565b600081359050612efe81612ed8565b92915050565b600060208284031215612f1a57612f19612ea2565b5b6000612f2884828501612eef565b91505092915050565b60008115159050919050565b612f4681612f31565b82525050565b6000602082019050612f616000830184612f3d565b92915050565b600081519050919050565b600082825260208201905092915050565b60005b83811015612fa1578082015181840152602081019050612f86565b83811115612fb0576000848401525b50505050565b6000601f19601f8301169050919050565b6000612fd282612f67565b612fdc8185612f72565b9350612fec818560208601612f83565b612ff581612fb6565b840191505092915050565b6000602082019050818103600083015261301a8184612fc7565b905092915050565b6000819050919050565b61303581613022565b811461304057600080fd5b50565b6000813590506130528161302c565b92915050565b60006020828403121561306e5761306d612ea2565b5b600061307c84828501613043565b91505092915050565b600073ffffffffffffffffffffffffffffffffffffffff82169050919050565b60006130b082613085565b9050919050565b6130c0816130a5565b82525050565b60006020820190506130db60008301846130b7565b92915050565b6130ea816130a5565b81146130f557600080fd5b50565b600081359050613107816130e1565b92915050565b6000806040838503121561312457613123612ea2565b5b6000613132858286016130f8565b925050602061314385828601613043565b9150509250929050565b600081519050919050565b600082825260208201905092915050565b6000819050602082019050919050565b61318281613022565b82525050565b600061319382613085565b9050919050565b6131a381613188565b82525050565b6131b281612f31565b82525050565b60a0820160008201516131ce6000850182613179565b5060208201516131e1602085018261319a565b5060408201516131f4604085018261319a565b5060608201516132076060850182613179565b50608082015161321a60808501826131a9565b50505050565b600061322c83836131b8565b60a08301905092915050565b6000602082019050919050565b60006132508261314d565b61325a8185613158565b935061326583613169565b8060005b8381101561329657815161327d8882613220565b975061328883613238565b925050600181019050613269565b5085935050505092915050565b600060208201905081810360008301526132bd8184613245565b905092915050565b6132ce81613022565b82525050565b60006020820190506132e960008301846132c5565b92915050565b60008060006060848603121561330857613307612ea2565b5b6000613316868287016130f8565b9350506020613327868287016130f8565b925050604061333886828701613043565b9150509250925092565b60006020828403121561335857613357612ea2565b5b6000613366848285016130f8565b91505092915050565b600080fd5b600080fd5b7f4e487b7100000000000000000000000000000000000000000000000000000000600052604160045260246000fd5b6133b182612fb6565b810181811067ffffffffffffffff821117156133d0576133cf613379565b5b80604052505050565b60006133e3612e98565b90506133ef82826133a8565b919050565b600067ffffffffffffffff82111561340f5761340e613379565b5b61341882612fb6565b9050602081019050919050565b82818337600083830152505050565b6000613447613442846133f4565b6133d9565b90508281526020810184848401111561346357613462613374565b5b61346e848285613425565b509392505050565b600082601f83011261348b5761348a61336f565b5b813561349b848260208601613434565b91505092915050565b600080604083850312156134bb576134ba612ea2565b5b600083013567ffffffffffffffff8111156134d9576134d8612ea7565b5b6134e585828601613476565b92505060206134f685828601613043565b9150509250929050565b61350981612f31565b811461351457600080fd5b50565b60008135905061352681613500565b92915050565b6000806040838503121561354357613542612ea2565b5b6000613551858286016130f8565b925050602061356285828601613517565b9150509250929050565b600067ffffffffffffffff82111561358757613586613379565b5b61359082612fb6565b9050602081019050919050565b60006135b06135ab8461356c565b6133d9565b9050828152602081018484840111156135cc576135cb613374565b5b6135d7848285613425565b509392505050565b600082601f8301126135f4576135f361336f565b5b813561360484826020860161359d565b91505092915050565b6000806000806080858703121561362757613626612ea2565b5b6000613635878288016130f8565b9450506020613646878288016130f8565b935050604061365787828801613043565b925050606085013567ffffffffffffffff81111561367857613677612ea7565b5b613684878288016135df565b91505092959194509250565b600080604083850312156136a7576136a6612ea2565b5b60006136b585828601613043565b92505060206136c685828601613043565b9150509250929050565b600080604083850312156136e7576136e6612ea2565b5b60006136f5858286016130f8565b9250506020613706858286016130f8565b9150509250929050565b7f4e487b7100000000000000000000000000000000000000000000000000000000600052602260045260246000fd5b6000600282049050600182168061375757607f821691505b6020821081141561376b5761376a613710565b5b50919050565b7f4552433732313a20617070726f76616c20746f2063757272656e74206f776e6560008201527f7200000000000000000000000000000000000000000000000000000000000000602082015250565b60006137cd602183612f72565b91506137d882613771565b604082019050919050565b600060208201905081810360008301526137fc816137c0565b9050919050565b7f4552433732313a20617070726f76652063616c6c6572206973206e6f7420746f60008201527f6b656e206f776e6572206f7220617070726f76656420666f7220616c6c000000602082015250565b600061385f603d83612f72565b915061386a82613803565b604082019050919050565b6000602082019050818103600083015261388e81613852565b9050919050565b7f4e487b7100000000000000000000000000000000000000000000000000000000600052601160045260246000fd5b60006138cf82613022565b91506138da83613022565b9250828210156138ed576138ec613895565b5b828203905092915050565b600061390382613022565b915061390e83613022565b9250827fffffffffffffffffffffffffffffffffffffffffffffffffffffffffffffffff0382111561394357613942613895565b5b828201905092915050565b7f4e487b7100000000000000000000000000000000000000000000000000000000600052603260045260246000fd5b600061398882613022565b91507fffffffffffffffffffffffffffffffffffffffffffffffffffffffffffffffff8214156139bb576139ba613895565b5b600182019050919050565b7f4552433732313a2063616c6c6572206973206e6f7420746f6b656e206f776e6560008201527f72206f7220617070726f76656400000000000000000000000000000000000000602082015250565b6000613a22602d83612f72565b9150613a2d826139c6565b604082019050919050565b60006020820190508181036000830152613a5181613a15565b9050919050565b7f4f6e6c79206974656d2073656c6c65722063616e20706572666f726d2074686960008201527f73206f7065726174696f6e000000000000000000000000000000000000000000602082015250565b6000613ab4602b83612f72565b9150613abf82613a58565b604082019050919050565b60006020820190508181036000830152613ae381613aa7565b9050919050565b7f4f6e6c792063616e63656c206974656d7320776869636820617265206e6f742060008201527f736f6c6420796574000000000000000000000000000000000000000000000000602082015250565b6000613b46602883612f72565b9150613b5182613aea565b604082019050919050565b60006020820190508181036000830152613b7581613b39565b9050919050565b7f4552433732313a20696e76616c696420746f6b656e2049440000000000000000600082015250565b6000613bb2601883612f72565b9150613bbd82613b7c565b602082019050919050565b60006020820190508181036000830152613be181613ba5565b9050919050565b7f4552433732313a2061646472657373207a65726f206973206e6f74206120766160008201527f6c6964206f776e65720000000000000000000000000000000000000000000000602082015250565b6000613c44602983612f72565b9150613c4f82613be8565b604082019050919050565b60006020820190508181036000830152613c7381613c37565b9050919050565b7f4f6e6c79206d61726b6574706c616365206f776e65722063616e20757064617460008201527f65206c697374696e672070726963650000000000000000000000000000000000602082015250565b6000613cd6602f83612f72565b9150613ce182613c7a565b604082019050919050565b60006020820190508181036000830152613d0581613cc9565b9050919050565b7f506c65617365207375626d6974207468652061736b696e67207072696365206960008201527f6e206f7264657220746f20636f6d706c65746520746865207075726368617365602082015250565b6000613d68604083612f72565b9150613d7382613d0c565b604082019050919050565b60006020820190508181036000830152613d9781613d5b565b9050919050565b600081905092915050565b6000613db482612f67565b613dbe8185613d9e565b9350613dce818560208601612f83565b80840191505092915050565b6000613de68285613da9565b9150613df28284613da9565b91508190509392505050565b7f4f6e6c79206974656d206f776e65722063616e20706572666f726d207468697360008201527f206f7065726174696f6e00000000000000000000000000000000000000000000602082015250565b6000613e5a602a83612f72565b9150613e6582613dfe565b604082019050919050565b60006020820190508181036000830152613e8981613e4d565b9050919050565b7f5072696365206d75737420626520657175616c20746f206c697374696e67207060008201527f7269636500000000000000000000000000000000000000000000000000000000602082015250565b6000613eec602483612f72565b9150613ef782613e90565b604082019050919050565b60006020820190508181036000830152613f1b81613edf565b9050919050565b7f4552433732313a207472616e736665722066726f6d20696e636f72726563742060008201527f6f776e6572000000000000000000000000000000000000000000000000000000602082015250565b6000613f7e602583612f72565b9150613f8982613f22565b604082019050919050565b60006020820190508181036000830152613fad81613f71565b9050919050565b7f4552433732313a207472616e7366657220746f20746865207a65726f2061646460008201527f7265737300000000000000000000000000000000000000000000000000000000602082015250565b6000614010602483612f72565b915061401b82613fb4565b604082019050919050565b6000602082019050818103600083015261403f81614003565b9050919050565b7f4552433732313a206d696e7420746f20746865207a65726f2061646472657373600082015250565b600061407c602083612f72565b915061408782614046565b602082019050919050565b600060208201905081810360008301526140ab8161406f565b9050919050565b7f4552433732313a20746f6b656e20616c7265616479206d696e74656400000000600082015250565b60006140e8601c83612f72565b91506140f3826140b2565b602082019050919050565b60006020820190508181036000830152614117816140db565b9050919050565b7f45524337323155524953746f726167653a2055524920736574206f66206e6f6e60008201527f6578697374656e7420746f6b656e000000000000000000000000000000000000602082015250565b600061417a602e83612f72565b91506141858261411e565b604082019050919050565b600060208201905081810360008301526141a98161416d565b9050919050565b7f5072696365206d7573742062652067726561746572207468616e207a65726f00600082015250565b60006141e6601f83612f72565b91506141f1826141b0565b602082019050919050565b60006020820190508181036000830152614215816141d9565b9050919050565b600060808201905061423160008301876130b7565b61423e60208301866130b7565b61424b60408301856132c5565b6142586060830184612f3d565b95945050505050565b7f4552433732313a20617070726f766520746f2063616c6c657200000000000000600082015250565b6000614297601983612f72565b91506142a282614261565b602082019050919050565b600060208201905081810360008301526142c68161428a565b9050919050565b7f4552433732313a207472616e7366657220746f206e6f6e20455243373231526560008201527f63656976657220696d706c656d656e7465720000000000000000000000000000602082015250565b6000614329603283612f72565b9150614334826142cd565b604082019050919050565b600060208201905081810360008301526143588161431c565b9050919050565b7f436f756e7465723a2064656372656d656e74206f766572666c6f770000000000600082015250565b6000614395601b83612f72565b91506143a08261435f565b602082019050919050565b600060208201905081810360008301526143c481614388565b9050919050565b600081519050919050565b600082825260208201905092915050565b60006143f2826143cb565b6143fc81856143d6565b935061440c818560208601612f83565b61441581612fb6565b840191505092915050565b600060808201905061443560008301876130b7565b61444260208301866130b7565b61444f60408301856132c5565b818103606083015261446181846143e7565b905095945050505050565b60008151905061447b81612ed8565b92915050565b60006020828403121561449757614496612ea2565b5b60006144a58482850161446c565b91505092915050565b7f4e487b7100000000000000000000000000000000000000000000000000000000600052601260045260246000fdfea2646970667358221220a5af2c89fe36dd7e91731374fe69cbfe2ebd66abb301651d80e722e270a19f6964736f6c63430008090033",
  "linkReferences": {},
  "deployedLinkReferences": {}
}